{
  "contractName": "Imicontract",
  "abi": [
    {
      "constant": true,
      "inputs": [],
      "name": "registroCount",
      "outputs": [
        {
          "name": "",
          "type": "uint256"
        }
      ],
      "payable": false,
      "stateMutability": "view",
      "type": "function"
    },
    {
      "constant": true,
      "inputs": [
        {
          "name": "",
          "type": "uint256"
        }
      ],
      "name": "Registros",
      "outputs": [
        {
          "name": "id",
          "type": "uint256"
        },
        {
          "name": "hash",
          "type": "string"
        }
      ],
      "payable": false,
      "stateMutability": "view",
      "type": "function"
    },
    {
      "inputs": [],
      "payable": false,
      "stateMutability": "nonpayable",
      "type": "constructor"
    },
    {
      "anonymous": false,
      "inputs": [
        {
          "indexed": false,
          "name": "id",
          "type": "uint256"
        },
        {
          "indexed": false,
          "name": "hash",
          "type": "string"
        }
      ],
      "name": "RegistroCreated",
      "type": "event"
    },
    {
      "constant": false,
      "inputs": [
        {
          "name": "_hash",
          "type": "string"
        }
      ],
      "name": "createRegistro",
      "outputs": [],
      "payable": false,
      "stateMutability": "nonpayable",
      "type": "function"
    }
  ],
  "bytecode": "0x60806040526000805534801561001457600080fd5b50610443806100246000396000f3fe6080604052600436106100565763ffffffff7c0100000000000000000000000000000000000000000000000000000000600035041663666ddc65811461005b578063a25647d414610110578063da05667d14610137575b600080fd5b34801561006757600080fd5b5061010e6004803603602081101561007e57600080fd5b81019060208101813564010000000081111561009957600080fd5b8201836020820111156100ab57600080fd5b803590602001918460018302840111640100000000831117156100cd57600080fd5b91908080601f0160208091040260200160405190810160405280939291908181526020018383808284376000920191909152509295506101e0945050505050565b005b34801561011c57600080fd5b506101256102d0565b60408051918252519081900360200190f35b34801561014357600080fd5b506101616004803603602081101561015a57600080fd5b50356102d6565b6040518083815260200180602001828103825283818151815260200191508051906020019080838360005b838110156101a457818101518382015260200161018c565b50505050905090810190601f1680156101d15780820380516001836020036101000a031916815260200191505b50935050505060405180910390f35b600080546001908101808355604080518082018252828152602080820187815293865284815291909420845181559151805192936102269390850192919091019061037c565b509050507ffbb60411e0c7d5545ada46049ad431ace2bda43f89418cd26ed2886fc79de16d600054826040518083815260200180602001828103825283818151815260200191508051906020019080838360005b8381101561029257818101518382015260200161027a565b50505050905090810190601f1680156102bf5780820380516001836020036101000a031916815260200191505b50935050505060405180910390a150565b60005481565b600160208181526000928352604092839020805481840180548651600296821615610100026000190190911695909504601f810185900485028601850190965285855290949193929091908301828280156103725780601f1061034757610100808354040283529160200191610372565b820191906000526020600020905b81548152906001019060200180831161035557829003601f168201915b5050505050905082565b828054600181600116156101000203166002900490600052602060002090601f016020900481019282601f106103bd57805160ff19168380011785556103ea565b828001600101855582156103ea579182015b828111156103ea5782518255916020019190600101906103cf565b506103f69291506103fa565b5090565b61041491905b808211156103f65760008155600101610400565b9056fea165627a7a7230582030cc81e135cf00574d4fa9e3acd94b4e246c038ab74ea74ea90712aefbac07050029",
  "source": "pragma solidity ^0.5.0;\n\ncontract Imicontract {\n  uint public registroCount = 0;\n\n constructor() public {\n  }\n\n  struct Registro {\n    uint id;\n    string hash;\n  }\n\n  mapping(uint => Registro) public Registros;\n\n  event RegistroCreated(\n  \tuint id,\n  \tstring hash\n  );\n\n\n  function createRegistro(string memory _hash) public {\n      registroCount ++;\n      Registros[registroCount] = Registro(registroCount, _hash);\n      emit RegistroCreated(registroCount, _hash);\n\n    }\n\n}\n\n//10.96.100.10\n// bool exists = elements[key] != address(0)\n//       if (!exists) {\n//          keys.push(key);\n//       }\n//       elements[key] = addr;\n\n\n//address 0xACD2F31C343adFC7f1Bd6e3c507325BD8f29ee3D",
  "sourcePath": "/home/jesus/Escritorio/IMI/imiSC/contracts/Imicontract.sol",
  "compiler": {
    "name": "solc",
    "version": "0.5.0+commit.1d4f565a.Emscripten.clang"
  },
  "schemaVersion": "3.0.9",
  "updatedAt": "2019-07-22T14:44:38.748Z",
  "devdoc": {
    "methods": {}
  },
  "userdoc": {
    "methods": {}
  }
}